:020000040000FA
:060000000A128A11F82F1C
:100CFC00740C83120313031C081303180817080041
:100D0C00740C83120313031C881203188816080032
:100D1C00740C83120313031C081103180815080024
:100D2C00740C83120313031C881303188817080010
:100D3C00740C83120313031C881103188815080004
:100D4C0083120313080C0139F600F7017608F4003E
:100D5C007708F500B12E08008316031388140811C8
:100D6C008811881208138813831203130811881131
:100D7C008812081388130800D12EC730F600C62E2F
:100D8C00F60BC52EC92ECA2EFF30F4070318F50A30
:100D9C00FF30F507D12E74087504031DD62ED72EFF
:100DAC00C32ED82E0800D12F0130F2000030F300F2
:100DBC00D92E0A128A11B2260A128A110230F200B6
:100DCC000030F300D92E0130F4000030F5000A1287
:100DDC008A1186260A128A110030F400F5000A12D4
:100DEC008A1196260A128A110030F400F5000A12B4
:100DFC008A117E260A128A110030F400F5000A12BC
:100E0C008A118E260A128A110130F4000030F50086
:100E1C000A128A119E260A128A110A128A11A62611
:100E2C000A128A1174037504031D1D2F1E2FD92E4F
:100E3C000330F2000030F300D92ED92EB830F00078
:100E4C000B30F1000430F2000030F300D92E0130E9
:100E5C00F4000030F5000A128A11C2260A128A1117
:100E6C00FF30F0070318F10AFF30F1077108803AE0
:100E7C00FF0080307F02031D452F013070020318E4
:100E8C00482F492FD92E0530F2000030F300D92E0F
:100E9C00D92E0030F400F5000A128A1186260A12A7
:100EAC008A110130F4000030F5000A128A117E26F6
:100EBC000A128A11B830F0000B30F1000630F20043
:100ECC000030F300D92E0130F4000030F5000A1286
:100EDC008A11C2260A128A11FF30F0070318F10A90
:100EEC00FF30F1077108803AFF0080307F02031D4C
:100EFC00812F013070020318842F852FD92E0730D3
:100F0C00F2000030F300D92ED92E0030F400F50099
:100F1C000A128A119E260A128A110130F40000303E
:100F2C00F5000A128A1196260A128A110130F40071
:100F3C000030F5000A128A118E260A128A118830A6
:100F4C00F0001330F1000830F2000030F300D92E1D
:100F5C000130F4000030F5000A128A11C2260A1280
:100F6C008A11FF30F0070318F10AFF30F1077108FE
:100F7C00803AFF0080307F02031DC62F01307002C3
:100F8C000318C92FCA2FD92E0230F2000030F300FB
:100F9C00D92ED92ED92E7308003A0319D62FD92E53
:100FAC007208003A0319DA2E013A0319DF2E033ABC
:100FBC000319E92E013A0319242F073A03192D2F8F
:100FCC00013A03194F2F033A0319692F013A0319F8
:100FDC008B2F0F3A0319AE2FD92ED92ED92E0A12D8
:100FEC008A110028F001F101F201F30183010A12C8
:040FFC008A11D92E4F
:04400E00D4E0FFFFFC
:00000001FF
